:020000040800F2
:1000000028050020A9050008AD030008AF0300087B
:10001000B3030008B7030008BB030008000000009A
:10002000000000000000000000000000BF03000806
:10003000C103000800000000C3030008C503000856
:10004000C3050008C3050008C3050008C305000870
:10005000C3050008C3050008C3050008C305000860
:10006000C3050008C3050008C3050008C305000850
:10007000C3050008C3050008C3050008C305000840
:10008000C3050008C3050008C3050008C305000830
:10009000C3050008C3050008C3050008C305000820
:1000A000C3050008C3050008C3050008C305000810
:1000B000C30500082B020008A7020008C3050008BA
:1000C000C3050008C3050008C3050008C3050008F0
:1000D000C3050008C30500085D2F0008C30500081C
:1000E00005020008C3050008C3050008C305000891
:1000F000C3050008C3050008C3050008C3050008C0
:10010000C3050008C30500085F020008C305000816
:10011000C3050008C3050008C3050008C30500089F
:10012000C3050008C3050008C3050008C30500088F
:10013000DFF80CD003F058FC00480047CD01000860
:100140002805002030B59BB00446214670A003F07E
:100150006FFE2146684602F04EFF9DF869000028B8
:1001600032DD6EA1684603F0AEF818B96CA003F05A
:100170005FFE29E06FA1684603F0A5F818B96EA0EC
:1001800003F056FE20E071A1684603F09CF8D8B950
:100190009DF86900022817DB0DF1050003F02EF928
:1001A00000EB80004FF6FF7101EA0015284603F0CE
:1001B0002AF80DF10F0003F021F985B2284603F06B
:1001C0004AF863A003F034FE1BB030BD00BF02F05C
:1001D000A3FB4FF4A06000F0F9F94FF4165002F0C1
:1001E00059FE02F003FC02F065FC02F0B1FF02F0E0
:1001F000CFFF5CA003F01CFE03E0AFF2B70002F0FB
:10020000EAFEFAE710B55948006808B9012000E095
:1002100000205649086056480068401C5449086050
:100220004FF4004000F0DDFE10BD10B50121514833
:1002300002F059F990B150480078401C4E490870BE
:100240004A48001D006808B9012000E00020474925
:10025000091D08600121474802F056F910BD10B58C
:100260000121464802F03FF9E0B1454800684549A0
:100270000840434908603D481838006808B9012023
:1002800000E000203949183908600020384908602A
:100290003B48006840F40040394908600121374874
:1002A00002F032F910BD2DE9F0410121364802F08B
:1002B0001AF900282AD000212E4801F04BFE2D49C2
:1002C00024310A882C49097802EB0141080103F026
:1002D000F8F906462D4A2E4B03F00DF9044603F0BB
:1002E00015FA2C490860084601682BA003F0A0FD10
:1002F00000202049243108801F490870012122482C
:1003000002F002F901211B4801F024FEBDE8F08152
:10031000726563656976653A2573000048000000E0
:1003200048534D50333831362052656365697665E0
:10033000640D0A005000000050453433353033203E
:1003400052656365697665640D0A0000530000001C
:100350004144393835342052656365697665640DEA
:100360000A0000006F6B210D0A000000B0812242DC
:10037000000000200004004004000020000C0040A9
:1003800000040140FF7F0F0000080040556AF6405E
:100390002BB0F03F0C00002074696D332D3E636E6E
:1003A000743A2564485A0D0A00000000704700BFE7
:1003B000FEE700BFFEE700BFFEE700BFFEE77047B5
:1003C00070477047704700000CB500200190009006
:1003D0006C48006840F480306A49086000BF694892
:1003E000006800F4003000900198401C01900098D3
:1003F00018B90198B0F5A06FF1D16248006800F417
:10040000003010B10120009001E000200090009821
:10041000012843D15C48006840F010005A49086048
:100420000846006820F0030008600846006840F0B5
:1004300002000860534840685249486008464068D6
:1004400048600846406840F480604860084640685C
:1004500020F47C1048600846406840F4E81048608A
:100460000846006840F08070086000BF454800689A
:1004700000F000700028F9D04248406820F00300E6
:10048000404948600846406840F00200486000BFAC
:100490003C48406800F00C000828F9D10CBD10B5AC
:1004A000FFF792FF10BD10B53648006840F001001C
:1004B000344908600846406834490840314948607A
:1004C00008460068324908402E490860084600681E
:1004D00020F4802008600846406820F4FE00486050
:1004E0004FF41F008860FFF7DAFF4FF000602949E2
:1004F000086010BD10B5002100200022214B5B6870
:1005000003F00C0121B1042906D0082928D107E005
:10051000214B224C236027E01F4B204C236023E01B
:10052000184B5B6803F47010164B5B6803F4803261
:10053000022303EB904022B9194B4343174C23602D
:100540000DE0104B5B6803F4003323B1144B4343BD
:10055000124C236003E0104B4343104C236003E034
:100560000D4B0E4C236000BF00BF064B5B68C3F30E
:1005700003130C4CE15C094B1B68CB40074C236018
:1005800010BD000000100240002002400000FFF8F3
:10059000FFFFF6FE08ED00E000127A0014000020D4
:1005A00000093D0018000020064880470648004723
:1005B000FEE7FEE7FEE7FEE7FEE7FEE7FEE7FEE713
:1005C000FEE7FEE7A70400083101000831490143B6
:1005D000314A1160704770B5002100230F22C478A2
:1005E00004B32D4C246804F4E064C4F5E064210AEB
:1005F000C1F10403CA40447804FA03F1847814403A
:1006000021430901254C0678A155047804F01F0503
:100610000124AC4005786D11AD0005F1E025C5F869
:10062000004109E0047804F01F050124AC401C4D92
:100630000678761145F8264070BD1A4A0A400243F2
:10064000154B1B1F1A60704739B1134A121D1268EF
:100650000243114B1B1D1A6006E00F4A121D12685F
:1006600082430D4B1B1D1A607047042808D14FF0C0
:10067000E021096941F004014FF0E022116107E037
:100680004FF0E021096921F004014FF0E0221161EF
:10069000704700000000FA050CED00E000E400E007
:1006A00080E100E080FFFF1F10B50446FA48844255
:1006B00008D10121401500F0D3FF0021601500F0A2
:1006C000CFFF17E0F548844208D10121001500F062
:1006D000C7FF0021201500F0C3FF0BE0F048844263
:1006E00008D10121C80300F0BBFF00214FF40040F6
:1006F00000F0B6FF10BD30B5024600200023506860
:10070000E84C20400D790C6844EA052420435060F1
:100710009068E54C2040D1E902542C434D7944EADD
:10072000450420439060D06A20F470000C7C641E65
:10073000E4B2234340EA0350D06230BD002101609F
:10074000017141718160C16001210174704721B163
:10075000826842F00102826003E0826822F00102B6
:100760008260704721B1826842F48072826003E047
:10077000826822F480728260704710B50023CBB289
:100780001AB144681C43446002E044689C434460DE
:1007900010BD816841F0080181607047014600206A
:1007A0008A6802F008020AB1012000E000207047C8
:1007B000816841F0040181607047014600208A6829
:1007C00002F004020AB1012000E00020704721B1CC
:1007D000826842F4A002826003E0826822F4A002F0
:1007E00082607047014600208A6802F480020AB1E4
:1007F000012000E00020704710B50A4600210023C8
:10080000416821F46041531E41EA4331416010BD0B
:1008100021B1426842F40062426003E0426822F47F
:10082000006242607047F0B504460D46002000218A
:10083000092D11DDE068A5F10A0606EB460707263B
:1008400006FA07F18843A5F10A0606EB460603FA05
:1008500006F10843E0600CE0206905EB4507072638
:1008600006FA07F1884305EB450603FA06F108434B
:100870002061072A0FDA606B561E06EB86071F26DB
:1008800006FA07F18843561E06EB860605FA06F1BE
:100890000843606322E00D2A0FDA206BD61F06EBB7
:1008A00086071F2606FA07F18843D61F06EB860641
:1008B00005FA06F10843206310E0E06AA2F10D0694
:1008C00006EB86071F2606FA07F18843A2F10D06FC
:1008D00006EB860605FA06F10843E062F0BD21B199
:1008E000826842F48012826003E0826822F48012FF
:1008F000826070470146C86C80B2704766484C30D1
:100900000068704721B1426842F48062426003E0AF
:10091000426822F480624260704721B1426842F42A
:100920008052426003E0426822F480524260704785
:100930000A460021816821F4E0411143816070473B
:1009400021B1826842F40042826003E0826822F4AE
:1009500000428260704721B1826842F402128260D4
:1009600003E0826822F40212826070470146002090
:100970008A6802F400120AB1012000E000207047EA
:10098000F0B504461546002000220026092911DD95
:10099000E068A1F10A0707EB470C072707FA0CF2FA
:1009A0009043A1F10A0707EB470703FA07F2104348
:1009B000E0600CE0206901EB410C072707FA0CF21C
:1009C000904301EB410703FA07F210432061A06B4B
:1009D000C0F30156EF1C06F1010CA7EB0C0707EB67
:1009E000870C1F2707FA0CF29043EF1C06F1010C4D
:1009F000A7EB0C0707EB870701FA07F21043A06388
:100A0000F0BD10B50A4600210023816B21F440118E
:100A1000531E41EA0351816310BD08B500230093C2
:100A20000090009B0B440093009B1A6008BD08B522
:100A3000024600200090009201F12800009B18441B
:100A400000900098006880B208BD0A460021416805
:100A5000164B1940114341607047416282627047F2
:100A60000A460021416821F01F011143416070478F
:100A700040B109490831096841F40001064A0832C9
:100A8000116007E004490831096821F40001024AB5
:100A90000832116070470000002401400028014026
:100AA000003C0140FFFEF0FFFDF7F1FFFFFD3FFFBF
:100AB0000246002013680B400BB1012000E000202B
:100AC0007047CA430260704770B502460020002399
:100AD00000240B125568CEB205EA060415681D40C5
:100AE00015B10CB1012000E0002070BD00220A12F7
:100AF000D34303607047000010B50121480700F0A0
:100B0000BCFD00214FF0005000F0B7FD10BD30B526
:100B1000002200235A4C226840F6FE748440A2430F
:100B2000D1E900452C438D682C43CD6844EA050388
:100B300003FA00F42243524C226030BD00210160D0
:100B400041608160C160704739B14D4A126801232C
:100B500083401A434A4B1A6006E0494A126801234F
:100B600083409A43464B1A60704741B1444A126829
:100B70004FF4805383401A43414B1A6007E0404AC8
:100B800012684FF4805383409A433D4B1A6070477C
:100B900010B551B13A4A121D126804090123A3404D
:100BA0001A43374B1B1D1A6009E0354A121D1268A3
:100BB00004090123A3409A43314B1B1D1A6010BD49
:100BC00040B12F49091D096841F003012C4A121D4B
:100BD000116007E02A49091D096821F00301284A2C
:100BE000121D1160704710B53AB1254B1B6801FA10
:100BF00000F42343224C236006E0214B1B6801FADA
:100C000000F4A3431E4C236010BD08B500220092DF
:100C10001B4A009200F10802009B1A440092009ABD
:100C2000116008BD08B500220092154A009200F13B
:100C30001402009B1A440092009A116008BD30B55E
:100C400000240023082802D142EA012401E042EAFC
:100C500001440B4B00F120052B441C6030BD08B54E
:100C6000014600200090064800902C2000EB9100E7
:100C7000009A104400900098006880B208BD0000FF
:100C80000074004001684FF6FE72114001600021BF
:100C9000016041608160C1608D49884208D18C4902
:100CA0000839496841F00F01894A083A51608AE0E1
:100CB00087491431884208D185490839496841F08B
:100CC000F001834A083A51607DE081492831884229
:100CD00008D17F490839496841F470617C4A083A73
:100CE000516070E07A493C31884208D1784908392E
:100CF000496841F47041764A083A516063E07449AA
:100D00005031884208D172490839496841F470214C
:100D10006F4A083A516056E06D496431884208D103
:100D20006B490839496841F47001694A083A5160D1
:100D300049E067497831884208D1654908394968EE
:100D400041F07061624A083A51603CE06149884272
:100D500006D1011F096841F00F01021F116032E046
:100D60005C491431884208D15A49091F096841F089
:100D7000F001584A121F116025E056492831884277
:100D800008D15449091F096841F47061514A121F82
:100D9000116018E04F493C31884208D14D49091F84
:100DA000096841F470414B4A121F11600BE0494938
:100DB0005031884207D14749091F096841F4702121
:100DC000444A121F1160704710B50022026847F6AE
:100DD000F0739A430C6A8B6823430C6923434C6974
:100DE00023438C692343CC6923434C6A23438C6A95
:100DF00023431A430260CB6843600B6883604B68EF
:100E0000C36010BD0021016041608160C16001616B
:100E100041618161C161016241628162704721B1BA
:100E2000026842F00102026004E002684FF6FE73BD
:100E30001A40026070471AB103680B43036002E076
:100E400003688B4303607047416070470146486800
:100E500080B2704701460020002201F080531BB190
:100E60001C4B083B1A6802E0194B083B1A6802EA5F
:100E700001030BB1012000E00020704700F0805119
:100E800019B11449091F086002E011490839486086
:100E9000704701460020002201F080531BB10D4B2A
:100EA000083B1A6802E00A4B083B1A6802EA010391
:100EB0000BB1012000E00020704700F0805119B113
:100EC0000449091F086002E0014908394860704779
:100ED0000800024008040240002044490860091D3F
:100EE0000860091D0860091D086041483F49143128
:100EF0000860704700213D498279002A3AD00A46AD
:100F0000126803689A430B461A600A1D1268036848
:100F10009A430B1D1A60027911440A6803681A4348
:100F20000A60324A0832126803689A432F4B08332A
:100F30001A601A1D126803689A432C4B0C331A600E
:100F40004279102A0ED11A1F126803681A43274BE0
:100F500008331A601A1D126803681A43234B0C33B6
:100F60001A600DE02149427911440A6803681A4366
:100F70000A6005E0027911440A6803689A430A602E
:100F800070470021016001710C21417100218171C4
:100F900070471649103109680143144A1032116034
:100FA000704701460020114A143212680A400AB103
:100FB000012000E0002070470C49143108607047A0
:100FC000014600200022094B1B6803EA0102074B7F
:100FD00014331B680B4013B10AB1012000E000205C
:100FE0007047024914310860704700000004014056
:100FF000FFFF0F0010B50446CC48844208D1012100
:10100000042000F02DFB0021042000F029FB46E025
:10101000C748844208D10121082000F021FB0021AB
:10102000082000F01DFB3AE0C248844208D10121AB
:10103000102000F015FB0021102000F011FB2EE025
:10104000BD48844208D10121202000F009FB002185
:10105000202000F005FB22E0B848844208D101219D
:10106000402000F0FDFA0021402000F0F9FA16E0DF
:10107000B348844208D10121802000F0F1FA002118
:10108000802000F0EDFA0AE0AE48844207D1012149
:10109000801500F0E5FA0021A01500F0E1FA10BD7E
:1010A00010B50121084600F0DBFA0021012000F014
:1010B000D7FA10BD2DE9F041024600250026002098
:1010C00000230024002791F803C00CF00F0591F8CD
:1010D00003C00CF0100CBCF1000F03D091F802C05B
:1010E0004CEA050591F800C0BCF1000F31D014683E
:1010F00000202BE04FF0010C0CFA00F3B1F800C017
:101100000CEA03069E4220D183004FF00F0C0CFA2C
:1011100003F7BC4305FA03FC4CEA040491F803C04E
:10112000BCF1280F06D14FF0010C0CFA00FCC2F8FC
:1011300014C00AE091F803C0BCF1480F05D14FF08C
:10114000010C0CFA00FCC2F810C0401C0828D1D3D6
:101150001460B1F800C0BCF1FF0F34DD546800200A
:101160002EE000F1080C4FF0010808FA0CF3B1F87A
:1011700000C00CEA03069E4221D183004FF00F0C01
:101180000CFA03F7BC4305FA03FC4CEA040491F89B
:1011900003C0BCF1280F05D100F1080C08FA0CF8C7
:1011A000C2F8148091F803C0BCF1480F07D100F1D8
:1011B000080C4FF0010808FA0CF8C2F81080401C27
:1011C0000828CED35460BDE8F0814FF6FF7101804E
:1011D000022181700421C17070470246002093688B
:1011E0000B400BB1012000E00020704701468868E9
:1011F00080B2704702460020D3680B400BB101203B
:1012000000E0002070470146C86880B27047016165
:101210007047416170470AB1016100E04161704768
:10122000C16070474FF480320A43826181618261FC
:1012300082698269704702460020434B18684FF666
:101240008073184040EA021008433F4B1860704713
:101250003E49C8617047F0B50A46002300240021CA
:10126000002500F00046B6F1004F02D1364EF1697C
:1012700001E0354E7168C0F3034583B200F44016B7
:10128000B6F5401F08D121F070612F4E766826F028
:1012900070662D4F7E6012E000F48016B6F5801F58
:1012A00006D1032606FA05F4A14341F0706106E079
:1012B000460D360103FA06F6B14341F0706122B1E2
:1012C000460D360103FA06F6314300F00046B6F14A
:1012D000004F02D11C4EF16101E01B4E7160F0BD68
:1012E00030B500228B071C0F0F2303FA04F2164BB4
:1012F00008338C1053F824309343134C08348D106A
:1013000044F8253023468C1053F824308C07240FE2
:1013100000FA04F423430C4C08348D1044F82530B3
:1013200030BD0A49DC310860704700000008014008
:10133000000C014000100140001401400018014061
:10134000001C01400020014000000140000020423C
:10135000DF48006840F00100DD4908600846406849
:10136000DC490840DA49486008460068DA49084024
:10137000D74908600846006820F4802008600846C5
:10138000406820F4FE0048604FF41F0088607047FA
:10139000CF49096821F48031CD4A116011460968AE
:1013A00021F480211160B0F5803F03D0B0F5802F8B
:1013B0000ED106E0C649096841F48031C44A116083
:1013C00007E0C349096841F4A021C14A116000E067
:1013D00000BF00BF704710B5014600220023002067
:1013E0004A11012A02D1BA4C236806E0022A02D12E
:1013F000B74C236A01E0B64C636A01F01F02012476
:1014000094401C400CB1012000E0002010BD38B514
:10141000002000900024002500BF3120FFF7DBFFF3
:1014200005460098401C00900098B0F5A06F01D0D0
:10143000002DF2D03120FFF7CEFF08B1012400E0EB
:101440000024204638BD01460020A14A106820F043
:10145000F80040EAC10010607047A049086070477A
:10146000024600209A4B586820F47C1042EA01039F
:101470001843974B58607047984908667047014673
:101480000020934A506820F00300084350607047E2
:101490008F48406800F00C007047014600208C4ADD
:1014A000506820F0F000084350607047014600206B
:1014B000874A506820F4E060084350607047014656
:1014C0000020834A506820F4605040EAC100506018
:1014D000704729B17E4A527A02437D4B5A7204E02A
:1014E0007B4A527A82437A4B5A7270477B49D83191
:1014F0000860704701460020754A506820F440405B
:101500000843506070470021714A20321170704AC0
:1015100082F82010012802D004280AD104E0012119
:101520006B4A2032117005E00521694A20321170A2
:1015300000E000BF00BF7047694908607047644918
:10154000096A0143624A116270476549443908607B
:10155000704730B500210022002400235C4D6D68E7
:1015600005F00C0121B1042905D0082923D105E09B
:101570005C4D056022E05B4D05601FE0544D6D68D9
:1015800005F47012524D6D6805F48034022505EBA8
:1015900092421CB9544D554305600BE04C4D6D68AB
:1015A00005F400351DB1504D5543056002E04D4D29
:1015B0005543056002E04B4D056000BF00BF444D40
:1015C0006D6805F0F0010909484D6B5C0568DD4068
:1015D00045603F4D6D6805F4E061090A434D6B5C61
:1015E0004568DD4085603A4D6D6805F46051C90A73
:1015F0003E4D6B5C4568DD40C560354D6D6805F45A
:101600004041890B3A4D6B5CC568B5FBF3F505614C
:1016100030BD29B12E4A526902432D4B5A6104E074
:101620002B4A526982432A4B5A61704729B1284A92
:1016300092690243264B9A6104E0254A92698243EB
:10164000234B9A61704729B1214AD2690243204B4A
:10165000DA6104E01E4AD26982431D4BDA617047A9
:1016600029B11B4AD2680243194BDA6004E0184AD8
:10167000D2688243164BDA60704729B1144A126966
:101680000243134B1A6104E0114A12698243104B62
:101690001A61704712494039086070470F49C864A1
:1016A00070470B49C87170470948406A40F0807024
:1016B00007494862704701460020054A92680A407F
:1016C0000AB1012000E0002070470149887270478C
:1016D000001002400000FFF8FFFFF6FE000042424B
:1016E0008004424200127A0000093D0028000020D8
:1016F0003800002010B50446FE48844208D101217C
:10170000C014FFF7ADFF0021E014FFF7A9FFC4E00C
:10171000B4F1804F08D101210846FFF7AEFF002148
:101720000120FFF7AAFFB8E0F348844208D1012165
:101730000220FFF7A2FF00210220FFF79EFFACE08E
:10174000EE48844208D101210420FFF796FF0021D2
:101750000420FFF792FFA0E0E948844208D101216C
:101760000820FFF78AFF00210820FFF786FF94E09A
:10177000E448844208D101211020FFF77EFF0021B8
:101780001020FFF77AFF88E0DF48844208D101216A
:101790002020FFF772FF00212020FFF76EFF7CE082
:1017A000DA48844208D101214014FFF759FF002193
:1017B0006014FFF755FF70E0D548844209D101213C
:1017C000C804FFF74DFF00214FF40020FFF748FF4A
:1017D00063E0D048844209D101210805FFF740FFAA
:1017E00000214FF48010FFF73BFF56E0CA488442C7
:1017F00009D101214805FFF733FF00214FF4001004
:10180000FFF72EFF49E0C548844208D1012140205E
:10181000FFF733FF00214020FFF72FFF3DE0C048D6
:10182000844208D101218020FFF727FF002180207A
:10183000FFF723FF31E0BB48844208D10121801526
:10184000FFF71BFF0021A015FFF717FF25E0B648A3
:10185000844209D101210804FFF702FF00214FF45F
:101860008030FFF7FDFE18E0B048844209D1012125
:101870004804FFF7F5FE00214FF40030FFF7F0FEBB
:101880000BE0AB48844208D101218804FFF7E8FE51
:1018900000214FF48020FFF7E3FE10BD00220288F4
:1018A000944B98420ED0994B98420BD0B0F1804F98
:1018B00008D0914B984205D0904B984202D0904B63
:1018C000984204D14FF68F731A404B881A438D4BC0
:1018D000984207D08C4B984204D04FF6FF431A40F1
:1018E000CB881A4302808B8883850B880385814BC4
:1018F00098420BD0854B984208D08B4B984205D02C
:101900008A4B984202D08A4B984201D10B7A0386C7
:1019100001238382704770B5002400220023058CC8
:101920004FF6FE7635400584028C8388048B4FF693
:101930008F752C40B51E2C400D882C43751E2A40F7
:101940000D892A434D882A436A4DA8420BD06F4D1A
:10195000A84208D0744DA84205D0744DA84202D0C8
:10196000734DA84213D14FF6F7752A404D892A438B
:101970004FF6FB752A408D882A434FF6FF652B40B2
:101980004FF6FF552B408D892B43CD892B43838008
:101990000483CD888586028470BD70B50024002242
:1019A0000023058C4FF6EF7635400584028C838842
:1019B000048B48F6FF752C404FF6FF452C400D88F0
:1019C0004FF6FF7606EA05252C434FF6DF752A40D1
:1019D0000D8906EA05152A434D8806EA05152A43AE
:1019E000444DA84202D0494DA8421DD14FF67F7503
:1019F0002A404D894FF6FF7606EA05152A434FF631
:101A0000BF752A408D8806EA05152A434FF6FF3533
:101A10002B404FF2FF752B408D8906EA85052B433D
:101A2000CD8906EA85052B4383800483CD8805870D
:101A3000028470BD70B5002400220023058C4FF68F
:101A4000FF6635400584028C8388848B4FF68F7542
:101A50002C404FF6FC752C400D882C434FF6FF555B
:101A60002A400D894FF6FF7606EA05252A434D8860
:101A700006EA05252A431F4DA84202D0234DA8425D
:101A80001DD14FF2FF752A404D894FF6FF7606EAC9
:101A900005252A434FF6FF352A408D8806EA05259D
:101AA0002A434EF6FF752B404DF6FF752B408D896E
:101AB00006EA05152B43CD8906EA05152B438380DD
:101AC0008483CD888587028470BD70B50022002391
:101AD0000024058C4EF6FF7635400584038C8488FF
:101AE000828B48F6FF752A404FF6FF452A400D8845
:101AF00020E00000002C01400004004000080040ED
:101B0000000C004000100040001400400034014070
:101B1000004C0140005001400054014000180040BA
:101B2000001C0040002000400040014000440140F3
:101B3000004801404FF6FF7606EA05252A434DF698
:101B4000FF752B400D8906EA05352B434D8806EAC3
:101B500005352B43FA4DA84202D0FA4DA84208D1D0
:101B60004BF6FF752C408D894FF6FF7606EA8515FA
:101B70002C4384808283CD88A0F84050038470BDBC
:101B8000828B4FF2FF331A408283828B4FF6FF73B2
:101B900003EA01231A4382837047F0B50C461546C9
:101BA000002200210026078C4EF6FF7C07EA0C0776
:101BB0000784828B018C4FF6FF7707EA043640F6E4
:101BC000FF473A404FF6FF7707EA05273A434FF6BB
:101BD000FF7707EA03373A43D94FB8420ED0D94FBF
:101BE000B8420BD0B0F1804F08D0D74FB84205D0E3
:101BF000D64FB84202D0D64FB84206D14DF6FF7745
:101C0000394046F48057394305E047F6FF573940DD
:101C100044F48057394382830184F0BD828B4FF6B0
:101C2000F3731A408283828B0A4382837047F0B534
:101C30000C461546002200210026078C4FF6FF6C4B
:101C400007EA0C070784828B018C4FF6FF7707EABF
:101C500004264FF60C773A404FF6FF7707EA031752
:101C60002F433A43B64FB8420ED0B64FB8420BD0CE
:101C7000B0F1804F08D0B44FB84205D0B34FB8424E
:101C800002D0B34FB84206D14FF6FF57394046F461
:101C90008077394305E04FF2FF57394044F48077AD
:101CA000394382830184F0BD028B4FF2FF331A4027
:101CB0000283028B4FF6FF7303EA01231A43028368
:101CC0007047F0B50C461546002200210026078C0F
:101CD0004FF6EF7C07EA0C070784028B018C4FF666
:101CE000FF7707EA041640F6FF473A404FF6FF77C2
:101CF00007EA03373A434FF6FF7707EA05273A43E7
:101D00008F4FB8420ED08F4FB8420BD0B0F1804FFA
:101D100008D08D4FB84205D08C4FB84202D08C4FBE
:101D2000B84206D14FF6DF77394046F01007394305
:101D300005E04FF65F77394044F0100739430283DE
:101D40000184F0BD028B4FF6F3731A400283028BBD
:101D50000A4302837047F0B50C4615460022002165
:101D6000068C4FF6FE773E400684028B018C4FF6C0
:101D70000C7632407E1C06EA03162E433243704E28
:101D8000B0420ED06F4EB0420BD0B0F1804F08D0B1
:101D90006D4EB04205D06D4EB04202D06C4EB04296
:101DA00006D14FF6FD76314044F00106314305E09F
:101DB0004FF6F576314044F0010631430283018449
:101DC000F0BD70B505460C465D4885420ED05D48B5
:101DD00085420BD0B5F1804F08D05B48854205D0D5
:101DE0005A48854202D05A48854200D100E000BFDF
:101DF000208850B92389A28861882846FFF7ABFF65
:101E0000E1882846FFF79EFF25E0208804280AD1B4
:101E10002389A28861882846FFF753FFE188284676
:101E2000FFF742FF17E0208808280AD12389A288FB
:101E300061882846FFF7FBFEE1882846FFF7EEFEA3
:101E400009E02389A28861882846FFF7A6FEE18879
:101E50002846FFF795FE70BD2DE9F04105460C467A
:101E600000260127608808B9022600E00026A08825
:101E7000012801D1022700E001272088A0B9238989
:101E8000A28861882846FFF766FFE1882846FFF7A9
:101E900059FF23893A4631462846FFF712FFE18869
:101EA0002846FFF701FF13E02389A28861882846AE
:101EB000FFF707FFE1882846FFF7F6FE23893A4639
:101EC00031462846FFF747FFE1882846FFF73AFFEB
:101ED000BDE8F0810A884B881A438B881A43CB8867
:101EE0001A430B891A434B891A438B891A43A0F86A
:101EF000442070474FF6FF71818000210180C1802E
:101F00004180017270470021018041808180C18041
:101F1000018141818181C18170470021018041801F
:101F2000012181800021C180018170470021018051
:101F300041808180C18001814181818170470000A1
:101F4000002C014000340140000400400008004023
:101F5000000C004021B1028842F00102028004E03E
:101F600002884FF6FE731A400280704731B1B0F814
:101F7000442042F40042A0F8442005E0B0F8442098
:101F8000C2F30E02A0F8442070471AB183890B43B4
:101F9000838102E083898B4383817047818270470C
:101FA00041EA0203A0F8483070471AB183890B4315
:101FB000838102E083898B438381704701894FF6D7
:101FC000F8721140018170470A46002101894FF6DD
:101FD0008F73194011430181704730B504460D4697
:101FE00029462046FFF7F0FF208940F007002081B6
:101FF00030BD2DE9F04104460D4616461F46602DC2
:1020000006D13B46012231462046FFF75AFE05E045
:102010003B46012231462046FFF79DFE29462046D9
:10202000FFF7D2FF208940F007002081BDE8F08152
:1020300030B50C4600210189C9B24FF6FF7505EA9B
:102040000325154325432943018130BD2DE9F04186
:1020500005460E4617469846002443463A46314602
:102060002846FFF7E5FF2C894FF6F870044044F04E
:1020700007044FF68F70044044F070042C81BDE8D3
:10208000F081F0B504460D4616461F463B463246E3
:1020900029462046FFF7CCFF208940F4804020816C
:1020A000F0BD0185828270470A46002101884FF603
:1020B0008F731940114301807047F0B50C461546E7
:1020C0001E460021002200230189028B038C4FF65B
:1020D000F877394021434FF6FC473A4040F2011768
:1020E0003A434FF6DD773B404FF6FF7707EA061796
:1020F0002F433B43018102830384F0BD0A46002144
:10210000018B4FF68F7319401143018370470A46C4
:102110000021018B48F6FF7319404FF6FF7303EA65
:1021200002231943018370470A460021818B4FF631
:102130008F7319401143818370470A460021818BB8
:1021400048F6FF7319404FF6FF7303EA0223194361
:102150008183704721B1028842F08002028004E04E
:1021600002884FF67F731A400280704721B182883F
:1021700042F00402828004E082884FF6FB731A402A
:102180008280704721B1828842F00802828004E098
:1021900082884FF6F7731A408280704721B1828897
:1021A00042F00102828004E082884FF6FE731A40FA
:1021B000828070470A460021018B4FF6F773194061
:1021C0001143018370470A460021018B4FF2FF73D0
:1021D00019404FF6FF7303EA022319430183704746
:1021E0000A460021818B4FF6F77319401143818312
:1021F00070470A460021818B4FF2FF7319404FF65A
:10220000FF7303EA02231943818370470A460021C2
:10221000018B4FF6FB7319401143018370470A4647
:102220000021018B4FF6FF3319404FF6FF7303EA8D
:1022300002231943018370470A460021818B4FF620
:10224000FB7319401143818370470A460021818B3B
:102250004FF6FF3319404FF6FF7303EA0223194389
:10226000818370470A460021018B4FF67F73194026
:102270001143018370470A460021018BC1F30E010F
:102280004FF6FF7303EA02231943018370470A469E
:102290000021818B4FF67F73194011438183704772
:1022A0000A460021818BC1F30E014FF6FF7303EA4A
:1022B00002231943818370470A460021018C4FF69F
:1022C000FD7319401143018470470A460021018CB7
:1022D0004FF6F77319401143018470470A460021F5
:1022E000018C4FF6DF7319404FF6FF7303EA0213B8
:1022F0001943018470470A460021018C4FF67F7311
:1023000019404FF6FF7303EA021319430184704723
:102310000A460021018C4FF6FF5319404FF6FF7318
:1023200003EA02231943018470470A460021018C05
:102330004FF2FF7319404FF6FF7303EA022319436C
:10234000018470470A460021018C4DF6FF73194045
:102350004FF6FF7303EA023319430184704730B527
:10236000002301248C40A3B2048C9C430484048C7D
:1023700002FA01F5ADB22C43048430BD30B5002320
:1023800004248C40A3B2048C9C430484048C02FA81
:1023900001F5ADB22C43048430BD70B50346002076
:1023A00000241846183001258D40ACB21D8CA54381
:1023B0001D8409B1082909D100EB6100056825F0E9
:1023C000700505600568154305600EE00D1FC5F337
:1023D0004E052844056825F4E045056005684FF67C
:1023E000FF7606EA02263543056070BD21B10288FA
:1023F00042F00202028004E002884FF6FD731A40A8
:102400000280704721B1028842F00402028004E099
:1024100002884FF6FB731A400280704721B1828810
:1024200042F08002828004E082884FF67F731A4077
:102430008280704702884FF6F7731A400280028844
:102440000A430280704782884FF68F731A40828059
:1024500082880A438280704702894FF6F8731A40D7
:10246000028102890A430281704702894FF67F7315
:102470001A40028102890A430281704781847047B1
:1024800081857047818670470187704781877047D3
:10249000A0F84010704702884FF6FF431A400280B0
:1024A00002880A43028070470146888E70470146C1
:1024B000088F70470146888F70470146B1F8400089
:1024C00070470146888C70470146088D7047024668
:1024D0000020138A0B400BB1012000E00020704760
:1024E000CA430282704730B5024600200023002410
:1024F000158A05EA0103958905EA010413B10CB1B7
:10250000012000E0002030BDCA4302827047000075
:1025100010B50446FB48844209D101218803FFF726
:102520009FF800214FF48040FFF79AF832E0F64818
:10253000844209D101214804FFF79FF800214FF49C
:102540000030FFF79AF825E0F048844209D10121D4
:102550008804FFF792F800214FF48020FFF78DF8F0
:1025600018E0EB48844209D10121C804FFF785F83F
:1025700000214FF40020FFF780F80BE0E54884428B
:1025800008D101210805FFF778F800214FF48010E9
:10259000FFF773F810BD2DE9F04786B005460E46EB
:1025A0000024A24600BFA1460027B08900B100BFA9
:1025B0002F462C8A4CF6FF700440F08804432C828E
:1025C000AC894EF6F3100440B08831890843718914
:1025D00008430443AC81AC8A4FF6FF400440B08905
:1025E0000443AC8201A8FEF7B4FFC648874202D17B
:1025F000DDF810A001E0DDF80CA0A88900F400408F
:1026000040B10AEBCA0000EB0A1031684900B0FB88
:10261000F1F807E00AEBCA0000EB0A103168890004
:10262000B0FBF1F86420B8FBF0F00401200964214C
:1026300001FB1089A88900F4004040B1322000EB72
:10264000C900B0FBF1F000F00700044308E03220BD
:1026500000EB09106421B0FBF1F000F00F0004431F
:102660002C8106B0BDE8F0874FF4165101600021BF
:102670008180C18001810C214181002181817047CD
:1026800010B502460020108A4FF2FF0318400B8855
:102690004C8823438C882343CC88234318431082DF
:1026A00010BD0021018041808180C180704721B12F
:1026B000828942F40052828104E082894DF6FF73E0
:1026C0001A4082817047F0B5034600240026002599
:1026D000002040F66A17B94200D100BF1846C1F386
:1026E000421401F01F06012707FA06F5012C01D15B
:1026F0000C3004E0022C01D1103000E014301AB18B
:1027000007682F43076002E00768AF430760F0BD2A
:102710001AB1838A0B43838202E0838A8B438382CC
:102720007047028A4FF6F0731A400282028A0A4307
:102730000282704782894FF2FF731A408281828938
:102740000A438281704721B1828942F0020282816C
:1027500004E082894FF6FD731A4082817047028A35
:102760004FF6DF731A400282028A0A4302827047E0
:1027700021B1028A42F48042028204E0028A4BF6CE
:10278000FF731A4002827047C1F3080282807047CB
:1027900001468888C0F308007047818941F0010133
:1027A00081817047028BD2B20283028B42EA0122FE
:1027B00002837047028B02F47F420283028B0A433A
:1027C0000283704721B1828A42F02002828204E0B3
:1027D000828A4FF6DF731A408282704721B1828A63
:1027E00042F01002828204E0828A4FF6EF731A40B0
:1027F0008282704721B1828A42F00802828204E01C
:10280000828A4FF6F7731A408282704721B182891B
:1028100042F40042828103E08289C2F30E02828187
:10282000704721B1828A42F40062828204E0828A87
:102830004FF2FF731A4082827047828A4FF6FB7311
:102840001A408282828A0A438282704721B1828A38
:1028500042F00202828204E0828A4FF6FD731A403F
:102860008282704702460020B1F5007F00D100BF90
:1028700013880B400BB1012000E00020704701F4E9
:102880000072B2F5007F00D100BFCA4302807047DA
:1028900070B50246002400230025002040F66A1689
:1028A000B14200D100BFC1F3421501F01F03012660
:1028B00006FA03F3012D02D19689334006E0022D7A
:1028C00002D1168A334001E0968A33400C12012669
:1028D00006FA04F41688344013B10CB1012000E06C
:1028E000002070BD10B50022002340F66A14A142FA
:1028F00000D100BF0A1201249440A3B2DC4304803B
:1029000010BD000000380140004400400048004075
:10291000004C00400050004010B56FF00400FDF77F
:10292000A4FE2E4800682E49B0FBF1F02D49087036
:102930000846007800EB4001C1EBC0104FF6FF7174
:1029400001EAC0002849088010BD0146254A1278D6
:102950004A434FF0E0235A6100229A611A461269F5
:1029600042F001021A6100BF4FF0E022106900F04E
:1029700001021AB100F48032002AF5D04FF0E022B3
:10298000126922F001024FF0E0231A6100229A61DD
:1029900070470146144A12884A434FF0E0235A61B7
:1029A00000229A611A46126942F001021A6100BFC0
:1029B0004FF0E022106900F001021AB100F48032F9
:1029C000002AF5D04FF0E022126922F001024FF008
:1029D000E0231A6100229A61704700001400002071
:1029E00000127A003C0000203E00002008B50121C2
:1029F0002020FEF71BFE43F24800ADF80000032044
:102A00008DF8020010208DF8030069460148FEF79A
:102A100051FB08BD00140140024607E010780B7816
:102A2000984201D000207047521C491C10780028A1
:102A3000F4D108780028F1D10120F4E702E0002168
:102A40000170401C01780029F9D170472DE9F0414F
:102A500005460F464FF000080026284600F02CFCE3
:102A600010B90020BDE8F08100241BE0285D20287B
:102A700009D0285D06EB860107EB410101F808004B
:102A800008F101080DE000E0641C601C285C2028AF
:102A9000FAD0601C285C08B9701CE3E7761C4FF084
:102AA0000008641C284600F007FCA042DED8701C19
:102AB000D8E7000008B501214020FEF7B7FD01214D
:102AC000E748FEF7C8FB7F20ADF8000048208DF8EE
:102AD00003006946E348FEF7EDFA08BD10B5044669
:102AE00014B10120E0490870DF48007800285AD06E
:102AF0000121DC48FEF771FBE8B10221D948FEF75D
:102B00006CFBC0B10421D748FEF767FB98B10821E0
:102B1000D448FEF762FB70B11021D248FEF75DFB8E
:102B200048B12021CF48FEF758FB20B14021CD48C5
:102B3000FEF753FB78BB0A20FFF72BFF0020CA49A2
:102B400008700121C748FEF748FB08B9012010BDF5
:102B50000221C448FEF741FB08B90220F7E704212F
:102B6000C048FEF73AFB08B90320F0E70821BD484A
:102B7000FEF733FB08B90420E9E71021B948FEF756
:102B80002CFB08B90520E2E72021B648FEF725FB1B
:102B900010B90620DBE706E04021B248FEF71DFB36
:102BA00068BB0720D3E70121AE48FEF716FB0128DA
:102BB00025D10221AB48FEF710FB01281FD10421CB
:102BC000A848FEF70AFB012819D10821A548FEF7FD
:102BD00004FB012813D11021A248FEF7FEFA0128B8
:102BE0000DD120219F48FEF7F8FA012807D1402196
:102BF0009C48FEF7F2FA012801D19B490870002099
:102C0000A5E710B502219748FEF7E7FA98B96420C6
:102C1000FFF7BFFE02219348FEF7DFFA20B9934881
:102C20000068401E9149086090480068C0F1280182
:102C30008FA001F0FDF804218A48FEF7CEFA98B97A
:102C40006420FFF7A6FE04218648FEF7C6FA20B9E5
:102C500086480068401C8549086084480068C0F1C7
:102C6000280183A001F0E4F808217E48FEF7B5FAB8
:102C700098B96420FFF78DFE08217A48FEF7ADFA77
:102C800020B97D480078401E7B4908707B48027857
:102C9000794801787AA001F0CBF810217148FEF74D
:102CA0009CFA98B96420FFF774FE10216D48FEF776
:102CB00094FA20B970480078401C6F4908706F483A
:102CC00002786D4801786EA001F0B2F86F48007884
:102CD000002833D140216348FEF77FFA98B9642079
:102CE000FFF757FE40215F48FEF777FA20B96348A7
:102CF0000078401C61490870604802785E4801789D
:102D00005FA001F095F820215648FEF766FA0028EA
:102D10003CD16420FFF73DFE20215248FEF75DFACA
:102D200020B956480078401E54490870534802782C
:102D30005148017852A001F07BF827E05348007811
:102D4000012823D140214748FEF747FA60B96420A3
:102D5000FFF71FFE40214348FEF73FFA20B94C48D9
:102D60000078401C4A49087020213E48FEF735FA99
:102D700060B96420FFF70DFE20213A48FEF72DFAD6
:102D800020B943480078401E414908700121354868
:102D9000FEF723FA30BB00203C4908704FF47A70EC
:102DA000FFF7F7FD01212F48FEF717FAD0B90120F0
:102DB000364908704FF47A70FFF7EBFD012129487E
:102DC000FEF70BFA70B90120304908704FF47A70A1
:102DD000FFF7DFFD01212348FEF7FFF910B90120BD
:102DE0002A49087025480078052803DA0520234978
:102DF000087006E021480078642802DD64201F493D
:102E000008701D480078012803DA01201A4908706B
:102E100006E019480078282802DD282016490870A5
:102E200012480068002803DA00201049086006E014
:102E30000E480068282802DD28200C490860144844
:102E40000078012803DA01201149087006E01048D3
:102E50000078282802DD28200D49087010BD0000E8
:102E60000002300000180140520000204C000020F9
:102E7000482025640D0A0000490000204800002079
:102E8000412025642025640D0A0000005100002027
:102E90005000002010B586B0044601210420FEF742
:102EA000C5FB01214804FEF7CEFB01214804FEF7D3
:102EB000BDFB6148FFF72CFB0420ADF81400032094
:102EC0008DF8160018208DF8170005A95B48FEF74D
:102ED000F1F80820ADF8140004208DF8170005A9BA
:102EE0005648FEF7E7F826208DF8000003208DF8FD
:102EF00001008DF8020001208DF803006846FDF7FF
:102F00006AFB01940020ADF80800ADF80A00ADF8A6
:102F10000C00ADF810000C20ADF80E0001A94648D9
:102F2000FFF739FB012240F225514348FFF7CBFB65
:102F300001214148FFF7BBFB06B010BD70B5044648
:102F40000D46E1B23C48FFF71FFC00BF80213A4824
:102F5000FFF788FC0028F9D0204670BD10B540F27C
:102F600025513548FFF794FC10B33348FFF710FCA8
:102F7000C4B23348008800F40040C8B93048008823
:102F800000F4804060B10A2C03D000202C49088056
:102F900020E02B48008840F400402949088019E0CF
:102FA0000D2C06D12648008840F480402449088032
:102FB00010E023480088C0F30D0022490C5420483B
:102FC0000088401C1E49088008460088C72801DD8B
:102FD0000020088010BD10B504461948008800F490
:102FE000004038B11748A04700201549088015480F
:102FF000FFF724FD10BD30B5A1B005460C466C218D
:1030000006A800F04EF9142101A800F04AF901AB1E
:1030100006AA0DA1204600F065F90DF11D0101A8D9
:10302000FFF714FDC0B28DF881006A2206A9284678
:1030300000F01EF921B030BD0044004000080140FE
:10304000540000205C000020257320255B5E3B5D62
:103050000000000008B501210846FEF7DAFA012158
:103060004FF40470FEF7E2FA0220ADF800000020F1
:103070008DF8030069464248FEF71CF808BD00B50C
:1030800091B04048FDF7FEFD3F4806903F4807904D
:10309000002008900120099000200A900B904FF426
:1030A00080700C9080000D9020200E9000020F90F8
:1030B0000020109006A93348FDF786FE0121314813
:1030C000FDF7ADFE002001908DF8080001208DF87D
:1030D00009004FF4602003900020049001208DF837
:1030E000140001A928484C38FDF705FB4FF4404077
:1030F000FEF700FA052301220B2123484C38FDF787
:1031000092FB012120484C38FDF72CFB01211E4881
:103110004C38FDF71CFB1C484C38FDF73AFB00BF50
:1031200019484C38FDF73AFB0028F9D116484C38BD
:10313000FDF73EFB00BF14484C38FDF73EFB00286E
:10314000F9D1012110484C38FDF741FB11B000BD09
:1031500010B5FFF77FFFFFF792FF10BD0146002279
:1031600011B90A4800887047002003E0074B1B880C
:103170001A44401C8842F9DBB2FBF1F290B2F2E74C
:1031800000100140080002404C240140560000207D
:1031900000B585B001210420FEF748FA0121480757
:1031A000FEF751FA3020ADF8100000208DF8130022
:1031B00003208DF8120004A92A48FDF77BFF302177
:1031C0002848FEF724F80020009001900290022089
:1031D000039069460020FDF79AFC69461020FDF730
:1031E00096FC01210020FDF7AFFC01211020FDF726
:1031F000ABFC00210846FDF708FD00210846FDF75D
:1032000011FD05B000BD2DE9F0470446204600F051
:1032100053FA81461449484600F02FF981464FF091
:103220008B41484600F0F7F8824600F088FA0746DE
:103230004FF066320D4B00F0D0F9054600F092FADF
:103240008146484600F04EFA85B229460020FDF737
:10325000DCFCBDE8F08710B5044621460020FDF7F0
:10326000E1FC10BD0008014000007A4466660A4097
:1032700040EA01039B0703D009E008C9121F08C0F8
:10328000042AFAD203E011F8013B00F8013B521E78
:10329000F9D27047D2B201E000F8012B491EFBD2EF
:1032A00070470022F6E710B513460A460446194651
:1032B000FFF7F0FF204610BD421C10F8011B00294B
:1032C000FBD1801A704710B5002200E0521C835CCD
:1032D0008C5CA34201D1002BF8D1D8B2E1B2401AE4
:1032E00010BD00000FB400B58DB010A909900B906F
:1032F00000914FF0FF300A9000200C900548069096
:10330000054807906A4609A80F9900F073FA0DB0B6
:103310005DF814FB113800082F3800082DE9FF5F15
:10332000D2E901A74FF00008916999461446DDF8EB
:1033300038B0464601988847054659EA0B0005D043
:1033400009E0A169761C019888470546216A28464C
:1033500088470028F5D1681C03D05FEACA7005D001
:1033600015E04FF0FF3004B0BDE8F09F2068011D6C
:103370002160D0F800800AE05FEACA7001D108F845
:10338000015BA169761C7F1E019888470546002FC6
:103390001ADD681C18D0B9F1000F0DD0E81705EB45
:1033A000D060421120F01F0059F822102A1A012083
:1033B00090400142E0D107E0BBF1000FDCD1216A6F
:1033C000284688470028D7D0E16901988847BBF193
:1033D000000F07D1002E05DD5FEACA7002D100217F
:1033E00088F80010A068B84203DDBBF1000F03D0DD
:1033F00017B16FF00100B6E73046B4E770B5064686
:1034000000F026FD046805460A220021304600F03F
:103410001FFA2C6070BD80EA010210B502F0004373
:10342000400022D04A001FD0010E01EB1261C0F310
:103430005600C2F3560240F4000042F40002A0FB22
:10344000022000047F39140400D0401C50EA1240CE
:1034500001D44000491EC2B20C0604EBD010401C3F
:103460004008802A02D003E0002010BD20F00100B7
:10347000002900DA0020184310BD30B480EA0102B0
:1034800002F0004530F0004221F0004013D090B12E
:10349000C30DD40DC2F31601C0F31600E41A41F4B3
:1034A000000140F400027D34914201D3641C00E02D
:1034B0004900002C02DA30BC002070474FF40000B5
:1034C0000023914201D3891A034340084FEA410186
:1034D000F7D151B1914202D14FF0004105E002D243
:1034E0004FF0010101E06FF0010103EBC4502844EB
:1034F00030BC00F0E5B92DE9FE4F81EA030404F089
:10350000004421F0004100944FF0000B23F00043F1
:1035100050EA01045ED052EA03045BD0C3F30A54BC
:10352000C1F30A552C44A4F2F3340194A0FB0254D5
:10353000C1F3130141F48011C3F3130343F4801367
:1035400001FB024400FB034E840A970A44EA8154BB
:1035500047EA8357A4FB076802958D0A05FB078598
:103560004FEA932C04FB0C542705029D4FEA0658A2
:1035700047EA1637B5EB08056EEB070C870E920E7F
:1035800047EA811742EA8312A7FB0201B6EB0B015F
:1035900064EB00042B0D43EA0C335E1844EB1C5023
:1035A000DA465146E7FB0201C5F313044FEA0B3339
:1035B00043EA14534FEA0432019C43EA0603A4F1A0
:1035C0000C040294009CCDE900B400F0BFF903B0F4
:1035D000BDE8F08F00200146F9E72DE9F04D81EAC2
:1035E000030404F0004B21F0004514464FF0000A9C
:1035F00023F0004150EA050220D054EA01021DD018
:10360000C5F30A570246C5F31303C1F31300C1F310
:103610000A5640F4801543F48013A7EB0608101BEC
:10362000D64608F2FD3873EB050002D308F1010815
:1036300001E092185B41B8F1000F03DA0020014667
:10364000BDE8F08D00204FF48011064684460EE060
:10365000171B73EB050705D3121B63EB050306432A
:103660004CEA010C49084FEA300092185B4150EADD
:103670000107EDD152EA030012D082EA040083EA86
:103680000501084305D0101BAB4106D201220023DF
:1036900006E000224FF0004302E06FF001025310F9
:1036A0001AEB06004CEB085110EB0A0041EB0B0142
:1036B000BDE8F04D00F03BB996230022114600F022
:1036C00008B90EB5C10F80EAE0700844CA070021AE
:1036D00040F233438DE80E000A460B4600F036F9FF
:1036E00003B000BD20F00040C10DC0F3160040F44F
:1036F00000007F2901DA00207047962903DCC1F120
:103700009601C8407047963988407047C1F30A5205
:1037100010B5C1F3130140F2FF3341F480119A4216
:1037200001DA002010BD40F233439A42A2F2334244
:1037300003DC524200F048F810BD904010BD00F08C
:10374000004230F000400AD0C10D01F56071C0F3B5
:10375000160042EA0151C208400711437047002099
:103760000146704701F0004330B421F0004150EAB7
:10377000010206D00A0DA2F56072C1F31301002AFE
:1037800002DC30BC00207047440F44EAC104C10091
:10379000E01830BC00EBC25000F092B830B50B46D8
:1037A000014600202022012409E021FA02F59D4271
:1037B00005D303FA02F5491B04FA02F52844151E45
:1037C000A2F10102F1DC30BD202A04DB203A21FA0B
:1037D00002F00021704721FA02F3D040C2F120022A
:1037E00091400843194670470268114413780160FC
:1037F00018467047D16004495161044911620021A3
:103800001161114600F020B9E9370008353A000887
:10381000426842B1016811F8013B23B1521EC0E970
:103820000012184670470121C160881E7047426827
:103830005AB1C368016843B983688B4205D0491EF9
:10384000521CC0E90012002070474FF0FF30704753
:103850002DE9F04791460F4680460446002614F8AD
:10386000015B2DB100F0E2F80068405DC007F6D1C1
:103870002B2D02D02D2D18D0641E4A4639462046E5
:1038800000F078FA27B13968A14201D1C7F8008069
:1038900071054FF002040BD54042002803DD00F013
:1038A000D7FA0460A007BDE8F08746F48066E4E735
:1038B0000028F8DA00F0CCFA04606FF00040F2E77C
:1038C0000029A8BF7047401C490008BF20F0010034
:1038D000704710B4B0FA80FC00FA0CF050EA010412
:1038E00004BF10BC704749B1CCF1200421FA04F4A4
:1038F00011FA0CF118BF012121430843A3EB0C017D
:10390000CB1D4FEA00614FEA102042BF002010BCDF
:10391000704700EBC35010440029A4BF10BC70478F
:10392000401C490008BF20F0010010BC704710B5D2
:10393000141E73F1000408DA401C41F100019218D2
:103940005B411A4301D120F0010010BD2DE9F04D7B
:1039500092469B4611B1B1FA81F202E0B0FA80F2D0
:103960002032904600F052F804460F4640EA0A0022
:1039700041EA0B0153465A46084313D0114653EA15
:10398000010019D0C8F140025046FFF71DFF05465F
:103990000E4650465946424600F038F8084305D0D6
:1039A000012004E020463946BDE8F08D00200543A3
:1039B00046EAE0762C4337430A986305E40AA0EB15
:1039C00008000022FD0A44EA47540A3002D50020CC
:1039D0000146E9E7010510196941DDE908450019CB
:1039E0006941BDE8F04DA2E7064C074D06E0E068EE
:1039F00040F0010394E8070098471034AC42F6D336
:103A0000FCF79AFBB8400008D8400008202A04DBE5
:103A1000203A00FA02F1002070479140C2F12003E1
:103A200020FA03F3194390407047000000487047A4
:103A3000B440000810B50446FFF7F8FF0068005DC9
:103A400000F0010010BD00002DE9F34F8BB04FF0E6
:103A5000000801F10C000C464FF0010B46460DF139
:103A6000080A0190626901210198904705002DD054
:103A7000252D2CD0216A8847C0B1626901210198A7
:103A80009047216A88470028F7D1411E6269019852
:103A9000904700E0761CA1690B988847216A884707
:103AA0000028F7D1E1690B988847DBE7A1690B98FB
:103AB00088470746A84201D1761CD3E7E1690B98F5
:103AC00088477F1C02D1B8F1000F6FD046E1002774
:103AD00062693D463946019890472A2804D16269B7
:103AE0000121019890470125DFF884926269012144
:103AF00001989047A0F130010A290AD24F45E5DC30
:103B000007EB870100EB4107303FDFD445F010059C
:103B1000ECE7E90601D46FF000476C280AD04C2886
:103B200014D0682815D06A280DD074281CD07A28A3
:103B30001AD01DE062690121019890476C2802D0DB
:103B400045F0040514E045F002050DE045F02005C0
:103B50000AE06269012101989047682802D045F087
:103B6000080505E045F40065626901210198904768
:103B7000C4E9015765283DD019DC58287AD00CDCFF
:103B8000452837D004DC252826D0412831D131E022
:103B900046282FD047282CD12CE05B2877D06128ED
:103BA00028D063287CD0642823D15AE0D0E06F2845
:103BB00048D008DC66281DD067281BD0692821D092
:103BC0006E2816D127E0702845D0732868D0752854
:103BD00047D078280DD14DE0A1690B98884705465C
:103BE00025283FF469AFE1690B9888476D1C3FF4C5
:103BF0006AAFB3E023466A466FF001000B99AFF35A
:103C000000809EE045F040006060A80723464FF02A
:103C1000000236D43EE0E8077FF447AF2068011D7C
:103C200021600068290501D506701BE7290701D529
:103C3000068017E7A90703D5F117C0E9006111E76E
:103C400006600FE745F040006060A80723464FF08C
:103C5000080216D41EE040F60E0125EA010060605D
:103C600016E045F040006060A80723464FF00A02C6
:103C700007D40FE045F040006060A80708D5234650
:103C800010226FF001000B99AFF3008059E007E0BC
:103C9000234610226FF001000B99AFF3008050E033
:103CA0004FF000094F464B46632802D05B2806D0F0
:103CB00040E0E80601D40120A06001273AE06269F3
:103CC0000121019890475E2805D14FF001096269F2
:103CD000494601989047216939B900210A4653465F
:103CE00043F82120491C0829FADBB0B3216969B9DE
:103CF000C11700EBD16253110AEB830122F01F02BE
:103D0000821A01200B68904003430B606269012115
:103D1000019890475D28E8D1B9F1000F09D0002043
:103D2000514651F82020D24341F82020401C082859
:103D3000F7DB02AB224600976FF001000B99FFF70B
:103D4000EDFA00280CDA401C08D1BBF1000F05D0B9
:103D50004FF0FF300DB0BDE8F08FFFE74046F9E7C8
:103D6000E90701D108F1010806444FF0000B79E69C
:103D7000CCCCCC0C2DE9F05F8246007800271546AC
:103D80008B460AF10104B946302801D09DB113E0F9
:103D900014F8010B0127782803D0582801D045B129
:103DA0000AE00DB1102D07D10027102514F8010BE2
:103DB00002E0082500E00A250026B0460EE005FBDB
:103DC000080005FB06F1012701EB10461FFA80F8F9
:103DD000B6F5803F00D3B94614F8010B294600F030
:103DE00018F80028EBDABBF1000F05D00FB1641E04
:103DF00000E05446CBF80040B9F1000F06D000F0C7
:103E000027F802210160C81EBDE8F09F48EA06407D
:103E1000FAE73A2800D2303820F02002412A01D3B4
:103E2000A2F13700884201D34FF0FF307047000005
:103E30000FB4054B10B503A9044A029800F01CF812
:103E400010BC5DF814FB00003D2F0008400000206E
:103E5000004870475800002002E008C8121F08C13F
:103E6000002AFAD170477047002001E001C1121FFB
:103E7000002AFBD1704700002DE9FF4F8BB09A4616
:103E80000F460546002606E025280BD052460D9920
:103E900090476D1C761C28780028F5D10FB030466D
:103EA000BDE8F08F0024A0460122604900E00443F1
:103EB00015F8013F203B02FA03F00842F7D12878B9
:103EC0002E2817D115F8010F44F004042A280ED02B
:103ED0006FF02F022878A0F1300109290AD808EBE9
:103EE000880102EB410100EB01086D1CF2E757F875
:103EF000048B6D1C287869283ED006DC0028CDD0C4
:103F000063280BD0642804D136E0732810D07528BC
:103F10004BD052460D999047761C85E017F8040B5C
:103F20008DF8000000208DF80100E946012003E033
:103F300057F8049B4FF0FF3061074FF0000401D4A5
:103F40000AE0641C44450DDA8442FADB19F80410D7
:103F50000029F6D106E0641C8442FCDB19F8041049
:103F60000029F8D1264404E019F8010B52460D99B6
:103F70009047641EF8D257E001CF4FF00A0B00289B
:103F800002DA40422D2102E0210504D52B218DF8D3
:103F90002410012103E0E10705D02021F7E70DF10E
:103FA000200908910CE00021F9E701CF4FF00A0B3E
:103FB000F9E75946FFF7F2FB01F1300209F8012D4C
:103FC0000028F6D1ADEB090000F1200B600701D409
:103FD0004FF00108D84502DDA8EB0B0000E00020FF
:103FE0008046002406E009A85246005D0D999047DE
:103FF000641C761C08988442F5DB04E030205246AD
:104000000D999047761CB8F10001A8F10108F5DC84
:1040100005E019F8010B52460D999047761CBBF14B
:104020000001ABF1010BF4DC6D1C34E70928010041
:1040300000404040404040404040414141414140BB
:104040004040404040404040404040404040404070
:1040500040050202020202020202020202020202FF
:104060000220202020202020202020020202020204
:10407000020290909090909010101010101010105C
:104080001010101010101010101010100202020268
:1040900002028888888888880808080808080808AC
:1040A00008080808080808080808080802020202A8
:1040B0004000000031400008D84000080000002007
:1040C0005C000000583E0008344100085C000020FD
:1040D000CC040000683E0008000000000000000062
:1040E00000000000000000000000000000A24A04E0
:1040F0000000000000000000010203040607080998
:10410000000000000102030401020304060708097D
:10411000020406080000000000000000000000008B
:10412000000000000000000000000100000000008E
:04413000000000008B
:0400000508000131BD
:00000001FF
